:020000040800F2
:1000000000270020D1000008DDBE00086DA1000817
:1000100000000000000000000000000000000000E0
:1000200000000000000000000000000005DE0008E5
:1000300000000000000000005BCA00088D4B0108B2
:10004000E3000008000000004DCC0008E3000008B9
:10005000E300000889280008D1280008FD280008CE
:1000600000000000E3000008E3000008E3000008CF
:10007000E3000008DD520108ED5201080000000015
:10008000FD52010829530108E3000008E3000008BD
:10009000E3000008E3000008E3000008E3000008B4
:1000A000E3000008E3000008E30000081D65010804
:1000B00031650108456501080448854600F064F88B
:1000C000004800470D720108C046C04600270020C6
:1000D0000448804704480047FEE7FEE7FEE7FEE7E6
:1000E000FEE7FEE7A54D0108B900000830B50B4654
:1000F000014600202022012409E00D46D5409D4202
:1001000005D31D469540491B254695404019154687
:10011000521E002DF1DC30BD70B5002425460028AC
:1001200001DA01244042002901DA01254942FFF7A2
:10013000DDFFAC4200D04042002C00D0494270BDEF
:1001400003460B439B0703D009E008C9121F08C0F0
:10015000042AFAD203E00B780370401C491C521E9B
:10016000F9D27047D2B201E00270401C491EFBD2A6
:1001700070470022F6E710B513460A4604461946B2
:10018000FFF7F0FF204610BD064C0125064E05E0A6
:10019000E36807CC2B430C3C98471034B442F7D3A8
:1001A000FFF78EFFE0C1010800C2010870B58C188E
:1001B0000578401C6B075B0F01D10378401C2A11A6
:1001C00006D10278401C03E006780E70401C491CE2
:1001D0005B1EF9D12B0705D40023521E0DD40B70E2
:1001E000491CFAE70378401CCB1A921C03E01D78E7
:1001F0000D70491C5B1C521EF9D5A142D8D30020BA
:1002000070BD000070B5044600680AF08FFF00283A
:1002100020D0206881688907C90F04D181680E4AFF
:1002200011401031816007F0EBFB05460EE007F04E
:10023000E7FB401B022809D9A06D10210843A065E7
:10024000E06D01210843E065084670BD20688068C4
:100250004007ECD4002070BDE8FFFF7FF8B50446EE
:10026000006881688907CD0F0AF05CFF002826D05E
:10027000002D24D120688168052211401025012617
:10028000012910D181680F4A1140891C81602168C1
:100290000320086007F0B4FB07460CE007F0B0FB52
:1002A000C01B022807D9A06D2843A065E06D30432C
:1002B000E0650120F8BD20688068C007EED100200D
:1002C000F8BD0000E8FFFF7FF8B5044600680AF0BB
:1002D00029FF00282ED120688168174A1026114076
:1002E000002919D18168D5432940491C8160607E6D
:1002F00001281FD007F084FB074616E00AF012FF22
:10030000002804D1206881682940491C816007F0D9
:1003100077FBC01B022808D9A06D3043A065E06DB3
:1003200001210843E0650846F8BD20680168C9431B
:10033000C907E3D10020F8BD1700008010B50446BE
:10034000012016F0F9FE022C1AD04B22FA210120CE
:1003500017F042FB0C4817F07FFB7D20000117F0DF
:1003600094FBFF20F53017F062FB7D20C00017F0F2
:1003700054FB0421552000F044F817F092FB10BD07
:100380004B22C821E3E70000DC05000010B5112076
:1003900000F00CF80402102000F008F8001980B2F8
:1003A00010BD10B55C2000F001F810BD70B5054619
:1003B00000240AF05BFA50200AF0FAF90AF0C4FAB5
:1003C00000280FD128460AF0F3F90AF0BDFA0028F8
:1003D00008D10AF04BFA51200AF0EAF90AF0B4FA0F
:1003E000002806D02046641CE4B20F28E1D3E020A8
:1003F00070BD00200AF09CF904460AF06FFA20460E
:1004000070BD70B50D46064600240AF02FFA502044
:100410000AF0CEF90AF098FA00280DD130460AF019
:10042000C7F90AF091FA002806D128460AF0C0F967
:100430000AF08AFA002805D02046641CE4B20F288E
:10044000E3D370BD0AF04AFA642009F061FF70BD81
:10045000411ECA17520F51184A05C908120EC90089
:10046000401E411A01208840044910B589188A7934
:1004700002438A7116F0A4FD10BD00007E18002012
:100480000448002141700421017003494D20087087
:1004900070470000C600002014000020044800211E
:1004A00041700421017003494E200870704700001C
:1004B000C60000201400002070B5114D064600242F
:1004C000002120460E2358430A46401983185B78C2
:1004D0000A2B05D2491C521CD2B2C9B20C2AF5D340
:1004E0000C233246401C16F0FCFF002802D0641C8E
:1004F000E0B270BD641CE4B2022CE1D3002070BDF8
:100500000E17002001090A2200075143000F0818A6
:10051000C0B27047002803D0010702D0401EC0B20D
:10052000704700090001C01FF9E70107090F0929F9
:1005300002D0401CC0B27047000900011030F9E73A
:100540003EB515A41CCC6D461CC502090A23000744
:100550005A43000F10187D22120184180809090758
:100560005843090F4018C5B2A00705D164212046A1
:10057000FFF7BCFD002906D1FF2191312046FFF78E
:10058000B5FD002902D12920694648706846401906
:100590002038C07F3EBD000031283130313031314C
:1005A0003031303110B501220549064802F022F9F8
:1005B000034801780448032900D30121417010BD8C
:1005C000B8000020FA1F0000D0220020F8B50E4627
:1005D000074615460421052000F06EF90021012090
:1005E00016F040FD80210A200DF0BCFC002405E03F
:1005F000395D092016F036FD641CE4B2B442F7D32D
:100600000321012016F02EFDFF2405200CF030FC04
:10061000641E2406240E01D04007F6D522200CF0DB
:1006200027FC287021200CF023FC6870F8BD000026
:1006300010B50C4C207808280ED1201D0AF058FE69
:10064000FF2809D1201D01F063F9002805D0608141
:10065000052020708001608010BD06202070C02021
:10066000F9E70000EC16002070B505460C4C33206D
:100670002022A11C400102F0BDF82022A11C284626
:1006800001F06CF9FF2805D00020207000BF00BFEA
:10069000002070BD0120207000BF00BFFF2070BD92
:1006A000021C00200020074A014606234B439B18EA
:1006B0005B79AA2B01D1401CC0B2491CC9B2642984
:1006C000F3D370478A140020F8B5324E00243078F6
:1006D000314D002805D001280ED1287B01280CD0EF
:1006E0004FE002F0E7FB20203071012030702A48F3
:1006F00080212C7320384185F8BDA87B002803D0C9
:1007000000BF00BF03203AE0224900204C708C70EB
:10071000CC70224C0146204B0022603B5B189D7B35
:10072000EE071FD00A2809D21A4EF7787F1CF770FF
:100730008600A05301273619B77012E0282804D28A
:10074000144F7E78761C7E7005E032280AD2114F55
:10075000BE78761CBE708600A05301273619B7708C
:100760000227F7706D08401C521CD2B29D73C0B2B4
:10077000082AD4D3491CC9B22029CCD30220054968
:10078000087004490879421E0A71B5D20320087026
:10079000F8BD00007E18002062140020B61700206B
:1007A0000020074A014606234B439B181B79012B67
:1007B00001D1401CC0B2491CC9B20A29F3D3704709
:1007C0001C1E00200020074A0A2106234B439B18C9
:1007D0001B79012B01D1401CC0B2491CC9B264294C
:1007E000F3D370471C1E002030B500252C46641C36
:1007F000E0B20AF0FDF8FF2801D16D1CEDB2E4B2C1
:10080000022CF4D3284630BD30B500250224641CE8
:10081000E0B20AF0EDF8FF2801D16D1CEDB2E4B2B0
:100820000A2CF4D3284630BD062148430449401819
:100830002038807F012801D000207047FF207047BA
:100840001C1E002070B51A4C00262178194D002975
:1008500005D001290DD1297B01290BD021E002F01F
:1008600029FB8020A0700121217012492E732039AC
:10087000488570BDA97B002911D102224105227053
:100880000C4A4007090E400F603A51188A7BC2405B
:100890008A73D00702D0FF20607000E0667000BF4E
:1008A00000BFA078411EA170E3D20320207070BD6C
:1008B0004B0000206214002070B50D4604460CF079
:1008C000D7FAA843C1B2204616F0CCFB70BD000099
:1008D000F0B5C001441800210E46094DDB080BE0BD
:1008E000002003E02718401CEE55C0B29042F9D317
:1008F0008034491CA4B2C9B28B42F1D8F0BD0000CB
:10090000DE0F0020002005490122034692020B540D
:10091000401C80B29042FAD370470000DE0F0020E6
:10092000002110B5044B0A46C0014418491C89B285
:100930001A558029F9D310BDDE0F0020F0B5C24F43
:10094000C24E38793C46203C9BB000281AD0618CBE
:10095000002902D0491E618414E0072809D00B2821
:1009600007D00D2805D00E2803D00F2801D1032071
:1009700030700020387138780A2801D2401C387055
:1009800009F0A6FCB24D287C012812D1E87B002892
:1009900002D0401EE8730CE00021AD4AA97329740F
:1009A0000846803A13182033401C80B2997264289C
:1009B000F8D3A548603019900078FF284DD01998D9
:1009C000407DFF2853D0287C022871D1A0490C22F9
:1009D00056396846FFF7B4FB0020A873287400233B
:1009E0000C221846511E6D462D5C401CEB1880B23F
:1009F000DBB28842F7DB00BF00BF684680182038B2
:100A0000C07F984228D19348FF21017400253D7092
:100A10003D7168468078012833D08C4A0223A03A81
:100A2000022830D0032868D004287AD005287AD04C
:100A300006287AD007286CD008286BD009286AD0FD
:100A40000A2869D00B2868D00C2867D00D2873D0ED
:100A5000202872D0212871D0F2E07B490C224C3141
:100A60006846FFF76DFB199900200870B7E77649D3
:100A70000C2261316846FFF763FB19990020487525
:100A8000ADE72570DCE065706846C078012810D0BD
:100A9000022810D0032811D0042811D0052811D025
:100AA000E57400BF00BF6846007901280CD00EE055
:100AB000C8E0032000E00420E074F2E70520FBE733
:100AC000E374EEE70120F7E7397200BF00BF684624
:100AD0004079012801D10320207068468079C00741
:100AE00009D00120107469465B48097A4170694653
:100AF000497A0170A4E01574F5E76846C0780128CA
:100B000002D002280BD09BE0A57099E009E00AE032
:100B10000BE025E037E038E05BE065E06EE0E57093
:100B20008EE025718CE065718AE06846C078012806
:100B300005D0022812D083E076E078E07EE0A5714F
:100B40006846807A002805D0042191763F49803993
:100B5000887075E003209076797271E0E5716FE03E
:100B60006846C078002801D0E57269E0A572684641
:100B7000817A36482038002902D0C37681775FE039
:100B80000121C1765CE025725AE06846817A3348DB
:100B9000002904D0022918D0032918D04EE0694654
:100BA000C978817169460979417169464979C1708D
:100BB0006946897981706946C97941706946097ABF
:100BC000017016F075FA65723AE0C178C17165720C
:100BD00034E025736846807A002803D003213174FD
:100BE00030752DE033742BE06846817A1C484172E1
:100BF000C021418103210172657321E06846C078FC
:100C0000002803D003203070E57319E03370684684
:100C10000079707068464079B07068468179C07913
:100C200000020818B080EFE7A573B17308E06846CA
:100C3000C078002801D10B488172A57400BF00BFA5
:100C400000BF00BF1BB0F0BD2E1D0020F41C002013
:100C5000CD0F0020CE180020820000200C000020C4
:100C6000A41D00204C190020104900200872487271
:100C70006031887308740E4903220A7048708870C6
:100C800008714871087388730A460874203290729C
:100C90000B46487440339872107020339872D872A3
:100CA000044B98731870C874107170476D0F002052
:100CB0000E1D0020F41C0020F8B58B4C0122E08CA6
:100CC0002746401C81B2E1842037002538797829F5
:100CD00001D20B0705D07F290ED9E58400280AD060
:100CE0000AE000BF00BF8149897A002904D10028A9
:100CF00002D1A27415E06270A17C002901D0002805
:100D00000FD07949227C0E464036497C002A10D00B
:100D1000002920D0744960318A7AC97AFF2A0BD021
:100D20000CE000F03DFAFF2802D1A07C401EA07428
:100D3000D7E0002914D12CE0002901D0914202D93A
:100D40002574BD720CE0FF2901D1002A01D08A422E
:100D500001D96574B572002805D0617C002901D0E5
:100D600000280BD0BDE060482B3000F0FDFBFF28D1
:100D700003D1207C401E2074BD72B2E05A484B3033
:100D800000F0F2FBFF2803D1607C401E6074B57256
:100D9000A7E02178002901D000284BD0A1780029B4
:100DA00001D000284BD0E178002901D000284DD097
:100DB0002179002901D000284DD06179002901D086
:100DC000002850D0A179002901D0002853D0E17922
:100DD000002901D0002853D0217A002901D0002811
:100DE00053D0A17A002901D0002853D0E17A0029FC
:100DF00001D0002853D0617A002901D0002853D0B7
:100E0000217B002901D0002853D0617B002901D02B
:100E1000002853D0A17B002901D0002853D0E17BCA
:100E2000002901D0002853D06178002959D000282A
:100E300053D056E0491E217000F034FB51E0491EAA
:100E4000A170E18A207D00F0D1FA4AE0491EE170EC
:100E500000F0BCF845E0491E2171628B617E207E66
:100E600000F0D0F93DE0491E6171E28B617F207F87
:100E700000F03EF835E0491EA17100F033F930E092
:100E8000491EE17100F0D0F82BE0491E217200F0FC
:100E90006FF826E0491EA17200F0E4FB21E0491E34
:100EA000E17200F0EFF81CE0491E617200F048F9B1
:100EB00017E0491E217300F039FC12E0491E6173EE
:100EC00000F0E4F90DE0491EA17300F09BFB08E07F
:100ED000491EE17300F00AFA03E0491E617000F058
:100EE000F1FBFFF72BFDF8BD0E1D00204C19002073
:100EF0003EB50B4619A532CD0091019402950C2107
:100F00006C46E070002B04D0012B04D0022B04D0DF
:100F100005E0022002E0032000E00420207162715D
:100F2000120AA271002210464B1E255C401CAA1812
:100F3000C0B2D2B29842F8DB60182038C27720469F
:100F400014F0A6FE08498020488407480621203076
:100F5000017106480021817301743EBDCAAC0500D1
:100F600000000000000000FF0E1D0020CD0F00203B
:100F70003EB511A207CA6B4607C300220C211046DA
:100F80006B464C1E04E01D5CAA18401CD2B2C0B2D5
:100F9000A042F8DB58182038C277184614F078FEC3
:100FA00008498020488407480921203001710648FB
:100FB0000021817301743EBDCAAC0800000000002E
:100FC000000000FF0E1D0020CD0F00203EB511A235
:100FD00007CA6B4607C300220C2110466B464C1E05
:100FE00004E01D5CAA18401CD2B2C0B2A042F8DBDB
:100FF00058182038C277184614F04AFE0849802055
:10100000488407480421203001710648002181737B
:1010100001743EBDCAAC030200000000000000FFE6
:101020000E1D0020CD0F00203EB511A207CA6B4651
:1010300007C300220C2110466B464C1E04E01D5CC9
:10104000AA18401CD2B2C0B2A042F8DB581820380F
:10105000C277184614F01CFE0849802048840748CF
:1010600008212030017106480021817301743EBDC2
:10107000CAAC060200000000000000FF0E1D0020A8
:10108000CD0F00203EB512A207CA6B4607C300224F
:101090000C2110466B464C1E04E01D5CAA18401C37
:1010A000D2B2C0B2A042F8DB58182038C277184636
:1010B00014F0EEFDFF2009490130488407480C2157
:1010C0002030017106480021817301743EBD00008B
:1010D000CAAC070100000000000000FF0E1D002048
:1010E000CD0F00203EB511A207CA6B4607C30022F0
:1010F0000C2110466B464C1E04E01D5CAA18401CD7
:10110000D2B2C0B2A042F8DB58182038C2771846D5
:1011100014F0BEFD0849802048840748072120308C
:10112000017106480021817301743EBDCAAC0601FD
:1011300000000000000000FF0E1D0020CD0F002069
:101140003EB512A207CA6B4607C300220C21104607
:101150006B464C1E04E01D5CAA18401CD2B2C0B203
:10116000A042F8DB58182038C277184614F090FDDA
:10117000FF2009490130488407480A2120300171C5
:1011800006480021817301743EBD0000CAAC09000D
:1011900000000000000000FF0E1D0020CD0F002009
:1011A0003EB513A207CA6B4607C300220C211046A6
:1011B0006B464C1E04E01D5CAA18401CD2B2C0B2A3
:1011C000A042F8DB58182038C277184614F060FDAA
:1011D000FF2801D000203EBD0849802048840748F0
:1011E00012212030017106480021817301743EBD37
:1011F000CAAC200000000000000000FF0E1D00200F
:10120000CD0F00203EB50B461BA532CD00910194B9
:1012100002950C216C46E070002B06D0012B06D005
:10122000022B06D0032B06D007E0012004E00220A9
:1012300002E0032000E0062020716271120AA27110
:10124000002210464B1E255C401CAA18C0B2D2B228
:101250009842F8DB60182038C277204614F018FD59
:10126000084980204884074805212030017106483C
:101270000021817301743EBDCAAC0400000000006F
:10128000000000FF0E1D0020CD0F00203EB512A271
:1012900007CA6B4607C300220C2110466B464C1E42
:1012A00004E01D5CAA18401CD2B2C0B2A042F8DB18
:1012B00058182038C277184614F0EAFCFF20094974
:1012C0000130488407480E21203001710648002172
:1012D000817301743EBD0000CAAC0B000000000029
:1012E000000000FF0E1D0020CD0F0020F0B538A239
:1012F00007CA87B002AB07C3384D0C242878FFF724
:1013000001F901906878FFF7FDF80090A878FFF7E1
:10131000F9F80590E878FFF7F5F807466879FFF7E0
:10132000F1F80646A879FFF7EDF87D21090140188C
:101330003A463146059B16F011F869468873000A53
:101340004873000A0873000AC8725020244DC873FD
:10135000287A0A214843697A4018C0B208F0FEFE94
:1013600069460874A87A0A214843E97A4018C0B24D
:1013700008F0F4FE69464874287B0A214843697BDB
:101380004018C0B208F0EAFE694688740021084699
:1013900002AA631E04E0155C6918401CC9B2C0B201
:1013A0009842F8DB10192038C1772146104614F016
:1013B0006FFCFF200B49013048840A480F21203080
:1013C0000171094800218173017407B0F0BD00006C
:1013D000CAAC0C0000000000000000FF0C00002060
:1013E000F41C00200E1D0020CD0F0020FEB50A4683
:1013F00026A41ACC6D461AC50C210123032400280B
:101400000AD001280FD002280FD0032810D00528B9
:1014100010D0FF280FD010E0282A01D90A200AE0B6
:101420006846037109E0022005E06846047104E0A3
:10143000062000E009206D46287168464271120AB4
:10144000827115480025007AFF2868461BD0C571B7
:10145000002210466E464B1E375C401CBA18C0B2C4
:10146000D2B29842F8DB70182038C277304614F0B8
:101470000FFC0A498020488408462030047108483F
:1014800085730574FEBDC371E2E70000CAAC0301B9
:1014900000000000000000FFD02000200E1D0020F2
:1014A000CD0F00203EB528A207CA6B4607C32948C6
:1014B0000C21C278032A3FD0022A3FD032226B4649
:1014C000DA7083786A4613710378537143789371A5
:1014D0000379D37142798079120110186A4610722B
:1014E0001D4800780028507A2AD0102210436A46FE
:1014F00050721A4AC0B2D2786B4680186A4650724F
:10150000002210464C1E1D5C401CAA18C0B2D2B26C
:10151000A042F8DB58182038C277184614F0B8FB00
:101520000F49802048840E480121203001710D4868
:101530000021817301743EBD4622C0E73C22BEE714
:10154000EF221040D3E70000CAAC01000000000009
:10155000000000FFA41D00206C00002042000020BD
:101560000E1D0020CD0F002030B589B00446242286
:1015700018A16846FEF7E4FD00216B46605C5A182E
:10158000491CC9B2D0701F29F8D30022232110466C
:101590004C1E1D5C401CAA18C0B2D2B2A042F8DB9F
:1015A00058182038C277184614F072FBFF2802D072
:1015B000002009B030BD1049802048840E48112118
:1015C000203001710D490020887308740C4988721D
:1015D000FF20EEE7CAAC2100000000000000000080
:1015E00000000000000000000000000000000000FB
:1015F000000000000000FF000E1D0020CD0F0020A5
:101600004C1900203EB512A207CA6B4607C3002240
:101610000C2110466B464C1E04E01D5CAA18401CB1
:10162000D2B2C0B2A042F8DB58182038C2771846B0
:1016300014F02EFBFF20094901304884074810218F
:101640002030017106480021817301743EBD000005
:10165000CAAC0D0000000000000000FF0E1D0020BD
:10166000CD0F00203EB512A207CA6B4607C3002269
:101670000C2110466B464C1E04E01D5CAA18401C51
:10168000D2B2C0B2A042F8DB58182038C277184650
:1016900014F0FEFAFF2009490130488407480B2165
:1016A0002030017106480021817301743EBD0000A5
:1016B000CAAC070000000000000000FF0E1D002063
:1016C000CD0F00203EB513A207CA6B4607C31448CE
:1016D0006A460078D07000220C2110466B464C1EE2
:1016E00004E01D5CAA18401CD2B2C0B2A042F8DBD4
:1016F00058182038C277184614F0CAFA09498020D1
:101700004884084802212030017107480021817374
:1017100001743EBDCAAC020000000000000000FFE2
:101720002F0000200E1D0020CD0F00203EB512A27C
:1017300007CA6B4607C300220C2110466B464C1E9D
:1017400004E01D5CAA18401CD2B2C0B2A042F8DB73
:1017500058182038C277184614F09AFAFF20094921
:101760000130488407480D212030017106480021CE
:10177000817301743EBD0000CAAC0A000000000085
:10178000000000FF0E1D0020CD0F002010B5034B00
:1017900003245C7118775977DA8310BD0E1D002081
:1017A00001490320087270470E1D002002490320E2
:1017B000C87000BF00BF70470E1D00200149012006
:1017C000C87270470E1D002001490320C871704780
:1017D0000E1D002001490320487270470E1D002095
:1017E00010B5034B03241C71187659765A8310BD2B
:1017F0000E1D002001490120487370470E1D002076
:1018000010B5014606220348FEF79AFC0249032060
:10181000C87310BDFC1C00200E1D0020024A0323CB
:1018200093701075D18270470E1D0020014903206E
:10183000087070470E1D0020F0B50146274885B09E
:101840000546203D0390827A28462B302C4684465C
:101850006034E07A0746401CC0B20290FF2A0ED0E6
:101860001F226046FEF76CFC0399FF20887201205E
:101870002874FF2F28D20298A07205B0F0BD174837
:10188000203001900246837A403A10466032967AC0
:101890004B30721CD2B20092FF2B0CD01F22FEF7ED
:1018A0004FFC0199FF20887201206874FF2E12D22C
:1018B0000098E072E1E7FF2E01D1002FD0D0B742AF
:1018C000CED8FF2F02D003E00020D5E7002EE5D0D0
:1018D000BE42E3D8D1E70020EBE700002E1D002038
:1018E00001490320887370470E1D00200149012023
:1018F000887270470E1D00200149012088717047D1
:101900000E1D002001490120087370470E1D0020A4
:1019100030B5114B002106224A43D2185479AA2C23
:1019200013D154780578AC420FD194784578AC4205
:101930000BD1D4788578AC4207D11279C478A24211
:1019400003D106204143585C30BD491CC9B264290B
:10195000E1D3002030BD00008A14002030B5002300
:1019600007E0C45CCD5CAC4201D0002030BD5B1C04
:10197000DBB29342F5D3FF2030BD000010B505481F
:101980004078FF2802D000F0A9FB10BD01F01EF83E
:1019900010BD00004700002070B500200A4AFF2358
:1019A000062141438C186371535400216518491C6A
:1019B000C9B26B700429F9D3401CC0B26428EFD3BC
:1019C00015F0F4FA70BD00008A14002010B5094A21
:1019D0000A20C3084407640F0121A140D3189C7951
:1019E000401C8C43C0B29C712828F2D315F0E8FA51
:1019F00010BD00007E18002070B5274C217800290A
:101A000011D020464088421E92B2032911D00429E9
:101A100019D0052923D0062914D12048082541785A
:101A2000FF2923D02AE00320207001F00DFF2020A1
:101A300007E06280002805D10420207001F01EFF1D
:101A40008020608070BD154920398B7E0521FF2BD9
:101A500000D1217062800028F4D1217013E001F0E0
:101A6000C1FE06202070FF200130EAE7002141700E
:101A7000C07900280AD0257000BF00BF6088411ED1
:101A80006180DFD2257000BF00BF70BD07202070CD
:101A900000F006F8F2E7000084000020B4200020E7
:101AA00070B50020074B084D024606214143CC1873
:101AB0002271401C6580C0B25A546428F5D315F0D9
:101AC00097FA70BD1C1E0020FFFF000070B5174C78
:101AD0006078122812D0164D0A2812D00B280CD18B
:101AE000297B1420012918D0E178491E0906090E26
:101AF000E17002D160702620A87370BD0A2060706A
:101B000070BD01F033F90B2060708020E07000217F
:101B1000297307492039488570BDA97B002900D168
:101B20001320607000BF00BF70BD000015000020D2
:101B30006214002010B5002420463B3002F06EF8FD
:101B4000002805D0641CE4B2052CF5D3FF2010BD9D
:101B500000BF00BF002010BD70B500200A4AFF235F
:101B60000E2141438C186373535400216518491C9E
:101B7000C9B26B700C29F9D3401CC0B20228EFD354
:101B800015F066FA70BD00000E17002070B5022037
:101B90000A4AFF230E2141438C18637353540021DA
:101BA0006518491CC9B26B700C29F9D3401CC0B22E
:101BB0000A28EFD315F04CFA70BD00000E17002074
:101BC00010B5094A2820C3084407640F0121A14029
:101BD000D3189C79401C8C43C0B29C713228F2D33C
:101BE00015F0EEF910BD00007E18002006225043CB
:101BF000094A10B583181A46FF21203AD177917609
:101C000000201A18203A401CC0B2D1760428F8D31C
:101C100015F0CCF910BD00008A140020411ECA172F
:101C2000520F51184A05C908120EC900401E411A28
:101C300001208840FF214840044910B589188A795D
:101C400002408A7115F0BCF910BD00007E1800201A
:101C500010B50E4C00210E224A43A35C83420DD1E5
:101C60000E204143FF2309194B73A35400200A1887
:101C7000401CC0B253700C28F9D303E0491CC9B210
:101C80000A29E8D315F0E4F910BD00000E17002072
:101C90000448002141700421017003494F2008705D
:101CA00070470000C600002014000020F8B5002591
:101CB000C0011A4E9E469446009000984718604610
:101CC000020917481201101800247246002A0278EF
:101CD00001D0FF235A403B19641CE4B2401CF2546B
:101CE000082CF2D300247246002A027801D0FF2388
:101CF0005A403B199B198033641CE4B2401C1A7093
:101D0000082CF0D3604600070831000E6D1CEDB2C0
:101D1000C9B28446022DD0D3F8BD0000DE0F0020EA
:101D2000A2960108FFB59646002281B0C001174E69
:101D30009446009000985022431870460009504382
:101D4000134A841800250020049A2778002A01D01D
:101D5000FF2257401A18401CC0B2641CB754142804
:101D6000F2D380336D1CEDB29BB2042DEBD37046E1
:101D70000007000E86466046401C1431C0B2C9B24E
:101D800084460228D6D305B0F0BD0000DE0F002047
:101D9000E29D0108FFB581B000901F4D0C46104632
:101DA0000027782C01D8009904E000990024491CF0
:101DB000C9B20091C9010E196421FEF797F98C464A
:101DC000010116480918002204980B78002801D058
:101DD000FF204340B018521CD2B2491C2B54082A91
:101DE000F2D3002204980B78002801D0FF20434052
:101DF000B01840198030521CD2B2491C0370082A16
:101E0000F0D3083461460A207F1C4843FFB2E4B295
:101E1000032FC6D305B0F0BDDE0F0020A296010847
:101E2000F8B500900020204D944686466046007824
:101E3000002837D0782935D8009AD20156180246A2
:101E4000203A5B2A06D2194A00018018FF38FF3871
:101E5000023800E0154800240778002B01D0FF224B
:101E600057403219641CE4B2401CAF54082CF3D321
:101E700000240778002B01D0FF2257403219521955
:101E80008032641CE4B2401C1770082CF1D3604609
:101E9000401C84467046401C0831C0B2C9B2864618
:101EA0001028C3D3F8BD0000DE0F002032980108CF
:101EB000F8B500900020374E96468446704602786A
:101EC000FF2A65D0C82A01D2712903D8C72A06D9AA
:101ED000782904D900980021801CC0B20090009895
:101EE000C0014018E62A24D21C2462432A4C14194B
:101EF00000252778002B01D0FF22574042196D1C86
:101F0000EDB2641CB7540E2DF3D300252778002BB7
:101F100001D0FF2257404219921980326D1CEDB258
:101F2000641C17700E2DF1D37046401C86460E318E
:101F300027E0FF2A26D2194C1201121973246401DA
:101F4000141B00252778002B01D0FF22574042198F
:101F50006D1CEDB2641CB754082DF3D3002527780F
:101F6000002B01D0FF2257404219921980326D1C7C
:101F7000EDB2641C1770082DF1D37046401C8646E4
:101F80000831C9B26046401CC0B28446242895D3AB
:101F9000F8BD0000DE0F0020767E0108A296010841
:101FA000F0B5C00141180024DB0816E000200BE06A
:101FB000069D002D059D2D5C01D0FF2675400F1854
:101FC000074E401CF555C0B29042F1D305988031C0
:101FD0008018641C89B2E4B20590A342E6D8F0BD33
:101FE000DE0F0020F0B5C00141180024DB0816E028
:101FF00000200BE0069D002D059D2D5C01D0FF26E5
:1020000075400F18074E401CF555C0B29042F1D3F1
:10201000059880318018641C89B2E4B20590A3420F
:10202000E6D8F0BDDE0F0020F8B5C00144181D460B
:102030000A211046FEF75AF808010F490F4B4018C5
:102040000021FF220678002D00D056406718491C59
:10205000C9B2401CDE550829F4D300210678002DB2
:1020600000D056406718FF188037491CC9B2401C81
:102070003E700829F2D3F8BDA2960108DE0F0020B9
:10208000F0B5782925D8C0014418E52A21D91001D6
:102090001049114A401873214901401A0021FF25B7
:1020A0000678002B00D06E406718491CC9B2401C4E
:1020B000D6550829F4D300210678002B00D06E40B5
:1020C0006718BF188037491CC9B2401C3E700829E8
:1020D000F2D3F0BDA2960108DE0F002010B586B045
:1020E00014216846FEF745F8074C1021204605F0FC
:1020F00055FB002110200191029100906946204675
:1021000005F0D2FB06B010BD0004005010B586B03B
:1021100014216846FEF72DF8074C0121204605F0F2
:102120003DFB01210020009102910190694620466B
:1021300005F0BAFB06B010BD0008005010B5012133
:10214000C902024805F02AFB10BD0000000400503F
:1021500010B50121C902024805F020FB10BD0000A6
:102160000004005030B585B014216846FEF701F830
:1021700001240525A4022D072146284605F00EFB63
:1021800000210191029100946946284605F08CFBDC
:1021900005B030BDF0B5B5A2A1B007CA0AAB07C300
:1021A000B5A103C9B6A21A91199007CA14AB07C307
:1021B000B6A103C91C911B90B6A103C91E911D9025
:1021C000B6A103C9B7A3189117900FCB02AC0FC4E7
:1021D000B8A207CA0DAC07C4B9A30FCB06AC0FC495
:1021E000AAA103C9BAA320911F900FCB10AC0FC4B2
:1021F000BB480078012843D00BF0D2FB0122FF231B
:102200001146032003F054FBB64832210079002721
:102210004843B54910234018009019225C210197CA
:102220003846FFF7BDFEB148FF250078B04EB14CEF
:10223000AA282BD0222829D000230AAA0821184630
:10224000FFF736FEAC480023827918211846FFF7C5
:102250002DFDA9480023427930211846FFF726FDBD
:10226000A5480023C27848211846FFF71FFDA34860
:102270000078082808D1A248017B012973D09CE08E
:102280000BF07AFBFEF73EFB21B0F0BD9A4800232D
:10229000827808211846FFF709FD607900281FD0D1
:1022A0000023F02218210020FFF7EAFE92480023C5
:1022B000427820211846FFF7F9FC9248007C01285B
:1022C00011D010231A4642210020FEF701FB8B4853
:1022D00000780828D8D18A48017B01290DD015E063
:1022E0000023F722DEE78848102300901A46422197
:1022F00001970020FFF754FEE9E74178FF292AD033
:102300000178FF2927D08078FF2824D07F480078E3
:10231000FF2829D008F07EFBFF2833D0A5710023C9
:102320000AAA18210620FFF7C3FD734C0023A279E7
:1023300028210620FFF7BAFC6279002340210620FD
:10234000FFF7B4FCE278002358210620FFF7AEFC2B
:102350000FF028F898E7307800284ED000230821A5
:1023600002AA032015E01FE0A5713078002804D0F0
:102370000023042106AA06204CE0002304210DAA14
:1023800006204EE03078002806D0002310AA08214D
:102390000620FFF745FD05E000231FAA14210620B3
:1023A000FFF786FDA571D3E74178FF29D3D00178E7
:1023B000FF29D0D08078FF28CDD054480078FF285E
:1023C00020D008F027FBFF282ED0A5714A4C00230F
:1023D000A2780E210220FFF7A5FC627800234A2193
:1023E0000220FFF79FFC4A48009020231422362148
:1023F00001970220FFF7D4FDAAE70023102117AAB6
:102400000320CDE7A5713078002806D0002306AA66
:1024100004210320FFF704FD9AE700230DAA0421FD
:102420000320FFF745FD93E73A48009018231B224D
:10243000022101970320FFF7B3FD307800280AD06E
:10244000002314AA26210220FFF7EAFC00232621FC
:102450001DAA04209DE7002319AA28210220FFF7C6
:1024600027FD002328211BAA042099E7E8E6E7EED0
:10247000F9E6E7F9E6E7FF00706C6D336E6FFF0079
:1024800053797320776974686F75740024595A08FA
:102490000945FF0061646D696E2E0000243F262708
:1024A000307576FF496E70757420326E6420494431
:1024B0000000000078F1FCF2772608097172FF0035
:1024C0005072657373202320746F206D656E7500E4
:1024D000506C73206164642061646D696E2E00002D
:1024E0008C0000202F00002052A10108F2190020CA
:1024F0006C000020B80000200C000020A61700206F
:10250000BE180020541C002059A601085D000020C0
:1025100002A101084CA2010870B5044689A090B040
:1025200003C80791069089A103C90991089089A160
:1025300003C90B910A9089A107C96B4607C38AA1F9
:1025400003C98BA20D910C9007CA07C38BA000682A
:102550000E908BA000688B4E0F908B4D7178287871
:10256000002918D002291FD006291DD009291BD007
:102570000C2919D00D2920D003291ED005291CD0E3
:1025800007291AD00A2918D0042916D00B2914D0EB
:10259000082912D019E0002803D0002308AA20211E
:1025A00010E0002306AA62E0002803D000236A4658
:1025B0000E2107E000230AAA59E0002855D0002385
:1025C00003AA08210020FFF72BFC002322465821F4
:1025D0001846FFF7DFFB6B4C0023203C627E1C217A
:1025E0000220FFF763FB0023F9222C210220FFF7D2
:1025F00047FDA27E002334210220FFF757FB002372
:10260000F92244210220FFF73BFDE27E00234C210A
:102610000220FFF74BFB227F00231C210420FFF741
:1026200045FB0023F0222C210420FFF729FD627FC7
:10263000002334210420FFF739FB0023F02244213A
:102640000420FFF71DFDA27F00234C210420FFF78B
:102650002DFBE07F03280FD0022817D0002820D0C0
:10266000012829D0052832D03BE000230CAA1821EC
:102670000020FFF71DFCA8E72878002802D00023DF
:10268000424A2AE0414A0023D53A44E0287800280B
:1026900003D03E4A0023183A1FE03C4A0023E43AA4
:1026A00039E02878002803D0384A0023203A14E083
:1026B000364A0023E93A2EE02878002803D0334A2E
:1026C0000023103A09E0314A0023DF3A23E028785A
:1026D00000281DD02D4A0023083A14210620FFF7B8
:1026E0009FFB00232AA250210620FFF799FB707858
:1026F000042815D0052813D00B2811D008280FD096
:10270000327800235C210620FFF744FB10B070BD37
:102710001E4A0023DA3A14210620FFF7C9FBE0E73E
:102720002878002806D000230FAA5C210620FFF796
:1027300077FBEBE700230EAA5C210620FFF7B8FB2E
:10274000E4E700002B4F898AF9FF0000556E6C6F9B
:10275000636B2D00595A0607F9FF0000416464209D
:10276000557365722D000000191A0607F9FF000065
:1027700044656C2E20557365722D0000C066FF0005
:102780004C6F7400EC1900206C000020D7B50108D4
:102790003A0000000020FF230449012292020B545A
:1027A000401C80B29042FAD370470000DE0F002038
:1027B000F7B50E4F84B015460E460024022302974B
:1027C00000960195A8210A48049A05F087FA002886
:1027D00009D009F07BF809F095F8641CE4B2052CE7
:1027E000ECD307B0F0BD00BF00BFFAE7FFFF000069
:1027F000B40A0020F7B50E4F84B015460E460024EB
:102800000223029700960195A8210A48049A05F030
:10281000BBF9002809D009F059F809F073F8641CD5
:10282000E4B2052CECD307B0F0BD00BF00BFFAE75F
:10283000FFFF0000B40A0020F7B517460025064642
:10284000AF42FDD9F006C00E291A2031B94211DA83
:1028500020210C1A224630460199FFF7A9FF601982
:1028600085B2019820180190A01986B2082007F0BF
:1028700045FDE5E7781B82B230460199FFF798FFE6
:10288000082007F03BFDFEBD70B50F48016900252B
:10289000C9070E4C00290BD0012004F0EFFF20796E
:1028A000012802D10B20A071257100BF00BF70BDAF
:1028B000C0688007FBD5022004F0E0FF20790128E2
:1028C000F5D1A571257170BD0018024036000020B9
:1028D00010B50848006900070AD5082004F0CEFFAB
:1028E00005480179012903D1082181710021017175
:1028F00010BD00000018024036000020F8B52D4D34
:1029000028690026C0062C4C00280BDA102004F0A1
:10291000B5FF2079012802D10620A0712671274930
:10292000FF2008700120400204F0A8FF286940053C
:1029300008D50120800204F0A1FF2079012801D1EF
:10294000A071267128691E4F1E4E00050DD5384610
:1029500004F094FF3078022805D11B480178322911
:1029600001D2491C017000BF00BFE86800050CD50A
:10297000384604F083FF3078012804D120790128FB
:1029800001D10920A07100BF00BF2869800509D5C9
:102990000120400204F072FF0A20A07109F0E0F962
:1029A00000BF00BF2869000602D5802004F066FF42
:1029B000F8BD000000180240360000206E00002024
:1029C00000080000D0220020C620002010B586B0EC
:1029D00014216846FDF7CDFB084C1021204604F079
:1029E000DDFE10200090064801900020029069460C
:1029F000204604F059FF06B010BD0000000400504E
:102A00000000211010B586B014216846FDF7B1FB17
:102A1000074C0121204604F0C1FE01210548009128
:102A2000029101906946204604F03EFF06B010BDB9
:102A3000000800500000211030B585B01421684610
:102A4000FDF797FB0124084DE4022146284604F0D7
:102A5000A5FE064801900120029000946946284690
:102A600004F022FF05B030BD00040050000021102A
:102A700030B585B014216846FDF77BFB0124084D75
:102A8000E4022146284604F089FE0648019002200F
:102A9000029000946946284604F006FF05B030BD58
:102AA000000400500000111030B585B014216846B4
:102AB000FDF75FFB01240525A4022D0721462846CA
:102AC00004F06CFE054801900020029000946946D5
:102AD000284604F0E9FE05B030BD000000002110DA
:102AE00000B503493820088003200BF03BF800BDF7
:102AF000980000207047000002484169024A1143D3
:102B0000416170470020024004000100F8B504F064
:102B100031FE04F0EBFD3C4C042020603B4860613A
:102B2000204604F04DFD25461C35A069286002278B
:102B30002046276004F044FD206968600126266075
:102B40002046666004F03CFDA068A860E068E8608C
:102B50002046C0C4083C04F033FDA0682861E26848
:102B60006A6100BF00BF2A492B688B420CD16B6899
:102B7000AA2B09D1AB683F2B06D1EB68002B03D100
:102B80003F2801D1002A38D000BF00BF04202060B8
:102B90001E48A16160611C4804F036FD0028FAD18E
:102BA0000A2007F0ABFBAA2027602061164804F03A
:102BB0002BFD0028FAD10A2007F0A0FB26603F2554
:102BC00066600020A560E0600F4804F01DFD00284D
:102BD000FAD10A2007F092FB0020A560E060C0C493
:102BE000094804F011FD0028FAD10A2007F086FBFD
:102BF00004F064FD0A2007F081FB04F051FD04F0AD
:102C000067FD00BF00BFF8BDDC20002000604F075B
:102C100000604D070448006AC0B2AA2802D0CC2840
:102C200000D0BB2070470000002002400248006A2C
:102C300002490840704700000020024000604F0732
:102C400030B5044C236AFF25284383430B431343C9
:102C5000236230BD00200240054A5169FF23F93349
:102C60009943C0000843034908435061704700007E
:102C7000002002400200010030B505494C690125E1
:102C80002C434C610260BFF36F8F436030BD000086
:102C90000020024030B50B4C002362690125AD04D1
:102CA0002A436261EFF3108272B620C95B1C20C018
:102CB000DBB2402BF9D32069C003FCD482F3108827
:102CC00030BD00000020024070B5054604F098FEBB
:102CD00046191A4C03E004F093FEB04225D2206955
:102CE000C043C003F7D5206915490840A1690122F6
:102CF000920711400143880F04D0A0698A0F920700
:102D00001043A061880002D088008008206100295B
:102D100003D00C484160012070BD04F071FE4519DC
:102D200005E004F06DFEA84201D3032070BD2069C8
:102D3000C0434003F5D5002070BD000000200240D4
:102D4000FA830000E422002010B50F21012014F0C6
:102D500089F9032007F0D2FA01200AF089F8202827
:102D600001D0002010BDFF2010BD00000EB505A24F
:102D700007CA6B4607C30C21684612F0F9FE00F043
:102D800033F80EBDEF01FFFFFFFF0100030D00113F
:102D90007FB50FA33CCB6E463CC6030A6A469372CE
:102DA000D072080A1073517300210620135C401C76
:102DB0005918C0B289B20E28F8D30A0A684682733D
:102DC000C173102112F0D4FE00F00EF87FBD000098
:102DD000EF01FFFFFFFF0100070C000000000000F3
:102DE00010B500F055F910BD02480021817301743F
:102DF000704700003C0F00201FB50EA11EC90394B0
:102E00006C460EC469468872002006216A46535CEF
:102E1000491C1818C9B280B20B29F8D3020A6946B6
:102E2000CA7208730D21684612F0A2FEFFF7DCFF9C
:102E30001FBD0000EF01FFFFFFFF010004020000C3
:102E4000050000001FB505A30FCB6C460FC40D2174
:102E5000684612F08DFEFFF7C7FF1FBDEF01FFFFB1
:102E6000FFFF010004340000390000000EB505A288
:102E700007CA6B4607C30C21684612F079FEFFF7BC
:102E8000B3FF0EBDEF01FFFFFFFF01000329002D7F
:102E90000EB505A207CA6B4607C30C21684612F09F
:102EA00067FEFFF7A1FF0EBDEF01FFFFFFFF01006F
:102EB000030100051FB50CA10FC96C460FC400200B
:102EC00006216A46535C491C1818C9B280B20B2906
:102ED000F8D3020A6946CA7208730D21684612F0D7
:102EE00047FEFFF781FF1FBDEF01FFFFFFFF01005E
:102EF000041F0000390000000EB505A207CA6B468A
:102F000007C30C21684612F033FEFFF76DFF0EBDBC
:102F1000EF01FFFFFFFF01000305000970B586B058
:102F200014460D460646142210A16846FDF708F91E
:102F300068468672290AC1720573210A4173847337
:102F4000002106206A46135C401C5918C0B289B2A1
:102F50000F28F8D30A0A6846C2730174112112F0CF
:102F600007FEFFF741FF06B070BD0000EF01FFFF55
:102F7000FFFF010008040000000000000000000046
:102F80000EB505A207CA6B4607C30C21684612F0AE
:102F9000EFFDFFF729FF0EBDEF01FFFFFFFF01006F
:102FA000033300377FB50EA23CCA6E463CC66A4664
:102FB0009072080AD072117300210620135C401C25
:102FC0005918C0B289B20D28F8D30A0A684642736C
:102FD00081730F2112F0CCFDFFF706FF7FBD0000CB
:102FE000EF01FFFFFFFF01000606000000000000E8
:102FF000F0B510A4F0CC85B003976F4670C76C464F
:10300000A072E17222730021637306202246135CD2
:10301000401C5918C0B289B20E28F8D30A0AA2730C
:10302000E1732046102112F0A3FDFFF7DDFE05B08D
:10303000F0BD0000EF01FFFFFFFF0100073C0000B3
:10304000000000391FB50EA10FC96C460FC4052042
:103050006946C872002006216A46535C491C18184C
:10306000C9B280B20C29F8D3020A69460A734873C0
:103070000E21684612F07CFDFFF7B6FE1FBD000072
:10308000EF01FFFFFFFF0100050E080000390000FF
:10309000F8B53A4B0024187C394D02281FD0688DB2
:1030A000012802D9401E6885F8BD0128FCD1354EA3
:1030B00000222021304604F09DFC334806F061FDDB
:1030C000322007F01BF901222021304604F092FC47
:1030D00008F0CEFD962007F011F96C85F8BD274861
:1030E0006C856038817C407C244D000209300818D2
:1030F00081B2234800224038803D06E0AE182036D9
:103100008718B67A521C3E7192B28A42F6D39C73EB
:103110001C74002306228C1E05E085182D79EB18FF
:10312000521C9BB292B2A242F7DB41188A78C9784E
:10313000120251188CB200BF00BF01221049203189
:10314000A34205D000BF00BF0A73FA208873F8BD00
:10315000837A0A73072B03D08A7300BF00BFF8BDC0
:10316000427B8A73817BC27B090289180180017CC2
:10317000427C090289184180F8BD00003C0F002004
:103180004214002000040050180D002070B54C4877
:1031900000230179B6B001290FD0022914D10146CC
:1031A000E0398A7A497A6C460902891D5118C9B2F8
:1031B000D22913D20022434D0EE0C178002901D05C
:1031C000491E7BE00371837036B070BDAE18603667
:1031D000B679A654521C92B28A42F7D38370037117
:1031E000002202204B1E03E0255C6A40401C80B296
:1031F0009842F9DB00BF00BF60182038C07F9042C2
:1032000002D000BF00BFDFE7A078FF212E4B0128CE
:1032100020D00028D8D1627918462030102A24D036
:10322000112A24D00446403C122A25D0132A2ED03D
:103230001D2A2CD0202A2CD0212A2CD0232A2CD075
:10324000242A2CD0ED2A2DD0FE2A2FD0302ABBD113
:103250004171D6E76079002805D00128B4D15976AC
:10326000A0795871B0E79976AEE7197700E0D97682
:1032700021468979C171A7E7997769468979C17132
:103280006946C879097A0002401860809CE7D977BE
:10329000F3E7017004E0417002E0597700E08170CB
:1032A0006946E6E7817100F0CFFA8DE7074A1278A8
:1032B000082A03D00A2A87D1017185E7C17083E704
:1032C0008D2200204D21002094200020BC200020D1
:1032D0003CB5EF2268460270AA2242702122827019
:1032E0000022C2700271062102206B464C1E03E0D0
:1032F0001D5C6A40401CC0B2A042F9DB581820385F
:10330000C277184612F050FD3CBD00003CB5EF22DC
:1033100068460270AA224270202282700022C27087
:10332000022202710C48082142886846130A437140
:103330008271002202206B464C1E03E01D5C6A4035
:10334000401CC0B2A042F9DB58182038C27718469A
:1033500012F02AFD3CBD0000742000203CB5EF2295
:1033600068460270AA224270FE2282700022C27059
:10337000012303714271072102206B464C1E03E0BA
:103380001D5C6A40401CC0B2A042F9DB58182038CE
:10339000C277184612F008FD3CBD3CB5EF226846E6
:1033A0000270AA224270FE2282700022C2700122A4
:1033B000027142710721002302206C464A1E03E07D
:1033C000255C6B40401CC0B29042F9DB601820388D
:1033D000C377204612F0E8FC3CBD3CB5EF226846BE
:1033E0000270AA224270232282700022C2700271EF
:1033F000062102206B464C1E03E01D5C6A40401C07
:10340000C0B2A042F9DB58182038C277184612F033
:10341000CBFC3CBD3CB5EF2268460270AA2242704C
:10342000242282700022C2700271062102206B46A3
:103430004C1E03E01D5C6A40401CC0B2A042F9DB98
:1034400058182038C277184612F0AEFC3CBD3CB587
:10345000EF2268460270AA22427011228270002276
:10346000C2700271062102206B464C1E03E01D5CF7
:103470006A40401CC0B2A042F9DB58182038C2771D
:10348000184612F091FC3CBD3CB5EF226846027034
:10349000AA224270302282700022C270027106217C
:1034A00002206B464C1E03E01D5C6A40401CC0B20B
:1034B000A042F9DB58182038C277184612F074FC85
:1034C0003CBD3CB5EF2268460270AA224270ED2254
:1034D00082700022C2700271062102206B464C1ECF
:1034E00003E01D5C6A40401CC0B2A042F9DB5818E2
:1034F0002038C277184612F057FC3CBD70B51CA1AD
:103500008EB003C90B900C91002001466D462954E2
:10351000401CC0B22928FAD3EF222A70AA226A706E
:103520001322AA70E9702321134E297171786971F1
:10353000292420220BA9A81DFCF702FE30462030CA
:10354000017908A88171318DC17100200221621EAC
:103550006B5C491C5840C9B29142F9DB29192039EA
:10356000C8772146684612F01FFC0EB070BD0000FF
:1035700054657374000000007420002070B594B08E
:1035800024221BA10BA8FCF7DBFD00210A466D4697
:103590006A54491CC9B22929FAD3EF212970AA21FA
:1035A00069701D21A970EA7023211A4E2971717862
:1035B0006971292420220BA9A81DFCF7C1FD304602
:1035C0002030017908A88171318DC171002002215C
:1035D000621E6B5C491C5840C9B29142F9DB291943
:1035E0002039C8772146684612F0DEFB14B070BD62
:1035F0004A46445A204650444C20464143452055B3
:103600005345522031323334353637383930313240
:1036100000000000742000203CB5EF2268460270D4
:10362000AA224270102282700022C270027106210A
:1036300002206B464C1E03E01D5C6A40401CC0B279
:10364000A042F9DB58182038C277184612F0ACFBBC
:103650003CBD00003CB5EF2268460270AA224270D1
:10366000122282700022C2700223037142710B4841
:103670000821028D68468271002218466B464C1E56
:1036800003E01D5C6A40401CC0B2A042F9DB581840
:103690002038C277184612F087FB3CBD742000200A
:1036A0001049002008714871E03108710E49087313
:1036B00048738873C873087448748874C87408752C
:1036C00048758875087648768876C876087748778A
:1036D0008877C8772031087048708870C870487142
:1036E00088717047AD2100209420002070B5FFF74D
:1036F0004DFD3B4C0025207DFF2829D0607DFF2813
:103700002CD0207BFF282FD0607BFF2832D0A07BDD
:10371000FF2835D0607CFF2838D0E07BFF283BD0E5
:10372000207CFF283ED0E07CFF2841D0A07DFF28F0
:1037300044D0E07DFF2847D0207EFF284AD0A07CDF
:10374000FF2804D1FFF7BDFEFF2800D1A57470BD8E
:10375000FFF762FFFF28FAD1257570BDFFF777FEEE
:10376000FF28FAD1657570BDFFF7C8FEFF28FAD1B2
:10377000257370BDFFF702FFFF28FAD1657370BD96
:10378000FFF768FFFF28FAD1A57370BDFFF742FE6F
:10379000FF28FAD1657470BDFFF7B8FDFF28FAD194
:1037A000E57370BDFFF794FDFF28FAD1257470BD55
:1037B000FFF713FEFF28FAD1E57470BDFFF7EDFDAA
:1037C000FF28FAD1A57570BDFFF7C8FDFF28FAD113
:1037D000E57570BDFFF758FEFF28FAD1257670BD5C
:1037E000942000200348FF21017400212030417003
:1037F00070470000942000200449FF22CA7320393A
:103800004880024800212030017070479420002039
:103810000348FF21C175002120300171704700006D
:10382000942000200348FF21817500212030C170C1
:1038300070470000942000200248FF2141750021BC
:10384000C17670479420002010B5084806F099F919
:1038500000220221064804F0CDF806480022C27179
:10386000FFF71EFF0448027010BD0000300E00205C
:103870000014005094200020BC20002010B501222C
:103880000221054804F0B6F804480121C171002165
:10389000817608F065FA10BD0014005094200020D5
:1038A0000348FF218174002120308171704700009E
:1038B0009420002005480021034601711422203B7A
:1038C0001A85FF224273C177417670479420002009
:1038D0000248FF21017500210177704794200020E4
:1038E0000348FF214174002120308170704700009F
:1038F000942000200548FF218173002181774176C3
:1039000002490A20203908857047000094200020D1
:10391000F8B5984E984D307800282AD0314649881D
:103920000B24491E89B201282DD02F4620370228AA
:1039300043D0032863D0802604286AD0062874D098
:103940008C4B07286DD0002208286BD009286AD03C
:103950000A2869D01C46C0230B287BD00C2811D123
:10396000A088002801D0401EA080687EFF2872D069
:10397000E1E0E879002801D1FFF780FF01203070F5
:1039800040207080F8BD7180002905D1FFF754FFF9
:103990000220307020207080A87EFF28F2D107F02E
:1039A00039F8FF2804D0B079FF2803D03470F8BD6F
:1039B000072000E009203070F8BDE87E0325FF28CD
:1039C00005D1F87900280CD03570072070807088F8
:1039D000401E0004000C7080EED13570072070800E
:1039E00070E007F017F8FF2804D0B079FF2803D063
:1039F0003470ECE7072000E009203070E7E7FFF7BC
:103A000023FF7088401E0004000C7080D4D1042075
:103A1000D1E7FFF733FF5748062101704680F8BD14
:103A200003E020E027E032E038E0A87EFF2808D15C
:103A300006F0F0FFFF280FD04E488179FF290FD004
:103A400004704C484188491E0904090C4180E6D1A4
:103A50000F2121E02EE038E0464907200870F0E70A
:103A600009210170EDE7FF201C469871FFF7DAFE8F
:103A70006680082072E05980002902D100BF00BF93
:103A80001A70F878FF28CAD11C709871C7E7FFF741
:103A9000BFFE38480A2146800170C0E759800029DE
:103AA00002D100BF00BF1A703879FF28B7D11C704F
:103AB0009A71B4E70C2020700520C0016080A380BB
:103AC000FFF718FF00BF00BFA9E76A76A0880028AB
:103AD0002FD12A486979C07801290CD0022915D044
:103AE000032916D0052917D0042918D0062919D082
:103AF00007291AD01DE022490988802919D92149AE
:103B0000A38009783C2914D0D82110E0A680C821D0
:103B10000DE0A680CA210AE0A680D02107E0A68099
:103B2000D22104E0A680CC2101E0A680CE2108F0BD
:103B300073FC00BF00BFA87FFF2806D1F8790028DA
:103B40000ED00F20207000BF00BF6088401E000410
:103B5000000C60809AD100BF00BF0F2020705EE78C
:103B600006F058FFFF2802D00D202070EDE70E2050
:103B7000FBE70000BC200020942000204200002031
:103B80003600002014000020F8B508210846FCF794
:103B900093FE07210D2013F065FA032114200AF08B
:103BA000E1F9062006F0AAFB3025A021022013F03F
:103BB00059FA80210420FCF77FFE0021012013F038
:103BC00051FA80210A200AF0CDF95221092013F080
:103BD00049FA0C21012013F045FA80210D200AF04A
:103BE000C1F908F09BFD0C4E5024042009F040F967
:103BF0000746641EA4B20121304603F0EFFE002800
:103C000004D0002C06D0F80702D003E0FF20F8BD56
:103C10002F42EAD00020F8BD000800501FB504462E
:103C20000020009003F0A6FD0220019001200390E7
:103C30000294694601A803F083FC03F031FD00986B
:103C4000401C02D0002004B010BDFF20FBE7F8B5F7
:103C500015461E460746032403F08CFD641EE4B29D
:103C6000002802D0002CF7D11FE0002C1DD0032427
:103C70002A4633463946012003F04CFD641EE4B267
:103C8000002802D0002CF3D10FE0002C0DD003242B
:103C900003F006FD641EE4B2002802D0002CF7D128
:103CA00003E0002C01D00020F8BD0120F8BD000089
:103CB000F8B55E4C2279002A29D05D4800230146E0
:103CC000403160301E2A25D0584D04466D88277B30
:103CD0006D1EAEB2A57B1F2A24D0544C262A42D09A
:103CE0002924272A47D0202A64D0212A6CD0242ACC
:103CF0007DD04E48252A09D1012F73D04680002E51
:103D000004D1047126214171C0214180F8BD1E20DB
:103D10002071F8BD1F222271037380254D85FFF7A6
:103D2000B7F86FE0012F04D04048002E46807BD0CA
:103D3000F8BD002D03D03D48022D0FD074E03D4862
:103D40000179827940798918C14201D0262000E0AA
:103D500020203649087101F099FDF8BD0371F8BDC6
:103D600000BF00BFF8BD27222271037380254D8557
:103D7000FFF768F846E0012F13D1002D01D02B4842
:103D800013E02B480E30FCF76FFCFF2803D02748C8
:103D90002B2104710BE0254820210171FF214131C5
:103DA000B3E72248002E4680DCD104712621417100
:103DB000C02137E01D4C21222271037380254D85DF
:103DC0000120FFF719F81DE0012FEAD1002D0AD0DC
:103DD0001648062104714171C021418000BF00BF17
:103DE000BEE704E010E0114824210171B8E70F4C50
:103DF00025222271037380254D8532220021012066
:103E0000FFF78CF86580ABE7002D04D0172D0BD0A1
:103E100004710821CBE72821017105490988018037
:103E2000FF21413141809BE7037199E71A0000208F
:103E300002140020A518002008B501226946024896
:103E4000FEF7D8FC08BD0000E91F0000F8B500BF70
:103E500000BF06F0A5FFFE4CE07100BF00BF0026CA
:103E6000FC4DFF2817D0FC494020087301F00EFDDF
:103E7000FA498020FA4F8880387801280BD1E878F9
:103E8000062108F0C9FA3E7001222021F54803F00E
:103E9000B1FD08F012F9F448F54902780127F3481A
:103EA0000091130013F02CF9562CFEFCFBC5C5FA4B
:103EB000C5FAF9C5F8C5C5C5F7F6C5C5F5F4F3F2F9
:103EC000F1F0EFEEF1EFEEF1C5C5EDECEBEAE9E86C
:103ED000E7C5E6E5E4E3E2E1E0C5C5C5C5DFC5C584
:103EE000DEDDDCDBDAD9C5D8D7D6D5D4D3D2D1D074
:103EF000CFCECDC5C5C5CCCBCAC9C9C8C8C7C6C534
:103F0000DC48007AFF2816D1D5480178012907D16D
:103F1000067001222021D34803F06CFD08F0CDF893
:103F2000D14829210170D44802210670E87808F0B0
:103F300073FA01F0ABFCE079D0491B2802D00A7873
:103F4000FF2A03D1CE4A9279002A0BD0CD49CE4A1E
:103F50000978082908D0FF286BD01670C94E0A29A5
:103F600054D05CE00E7037E00A2815D2C749102201
:103F70004F740A748F7408700120FF220A54401C89
:103F80000B7CC0B28342F9D8BE4909200870E8789A
:103F9000012108F041FA42E00A2802D00B2813D090
:103FA0003DE0B94800780028E87806D0012108F003
:103FB00033FAB7480680477131E0012108F02CFA46
:103FC000B149FF2008702AE0AF480078FF2811D0DF
:103FD000AB48807900282CD1E878012108F01CFA40
:103FE000A14932200870AB4906200870AA490B206D
:103FF000487114E0E878012108F00EFA9A482F2160
:104000000170A6480670A048067008E0E878012113
:1040100008F002FAF0207080E07901F0CDFBE07941
:104020000E2806D108F068F98F48412101700098E8
:104030008776F8BDCAE2C4E2BEE2B8E2C1E0B0E011
:104040009EE0FBE3FBE3FBE3FBE3FBE3FBE3FBE3E0
:104050002CE2FAE3FAE3FAE3FAE3FAE3FAE3FAE347
:10406000FAE384E1F9E3F9E3F9E3F9E3F9E3F9E3E6
:10407000F9E305E2F8E373E361E35DE334E3FAE2D5
:10408000F7E2DAE2C1E2D4E2D1E0CEE252E2BBE111
:10409000F2E39BE11BE147E1A3E081E27CE24EE039
:1040A0002CE0FFE7E07901280ED0022872D0032827
:1040B00011D0042814D00A281DD00B28B9D1E878D3
:1040C000012108F0A9F9F0E3E878012108F0A4F94A
:1040D00002F07AFDADE7E878012108F09DF9FDE3F3
:1040E000E878012108F098F95F48142101706048D0
:1040F000803886769DE7E878602118E2E07901282B
:1041000008D002280DD0032812D00A28D7D00B28B7
:10411000DAD08EE7E878012108F07EF9FCF7B0F9F3
:1041200087E7E878012108F077F9FCF7B7F980E72D
:10413000E878012108F070F9FDF7AAFD79E7E07948
:1041400001280CD002280FD0032812D00A28BBD097
:104150000B28BFD1E878012108F05EF90EE2504843
:1041600086720770062008E04D48082186720670A6
:104170004EE04C481221817209203B49087058E7F3
:10418000E079012807D0022808D00A289CD00B2803
:10419000C0D04EE7B8E102F061FA4AE702F06CFAEB
:1041A00047E7E079012806D0022807D00A288BD0FB
:1041B0000B28B6D03DE702F06DFA3AE702F078FA44
:1041C00037E7E079012806D0022807D00A289FD0D7
:1041D0000B28ADD02DE702F033FA2AE702F022FADD
:1041E00027E7E179012910D0022914D0032916D03C
:1041F000042919D00A298BD00B298AD1E87801210A
:1042000008F00AF902F0C6FA13E7867206701E215A
:10421000154801700DE7867207701721F8E786725E
:10422000022101701B21F3E702F0A6FA01E7E07911
:10423000012839D002283DD0032841D00A28DDD0FA
:104240000B289CD1E878012108F0E6F8ECE70000A3
:10425000B800002042000020EC160020BC20002006
:104260008C00002000080050140000207214002070
:10427000D41C00202E1D00203E0000209C0A00209F
:10428000A41D0020A61700205D00002010210020A2
:10429000360000207A000020BE180020B018002050
:1042A000EA130020F6130020FB48112181720770E9
:1042B0001921ADE7F9481221417007701A21A7E7CB
:1042C000F64812214170022101701D21A0E7E0791A
:1042D000242101280ED0022812D0032817D0042848
:1042E0001CD00A2887D00B288ED1E878012108F04D
:1042F00093F806E2EA480170EA480670C77298E649
:10430000E7480170E74802210670C17291E6E4486F
:1043100025210170E4481621017073E0E048262150
:1043200001701720E14929E7E07901280ED0022821
:1043300011D0032815D00A28D4D00B28DFD1E87873
:10434000012108F069F802F0CFF972E6D448212182
:104350000170D74838E0D248222101700A20D5499F
:104360000CE7CF48232101700B20D34906E7E07901
:1043700001280CD0022811D0032816D004281BD005
:104380000A2800D19BE60B2800D1A4E651E6E87884
:10439000012108F041F802F027FA4AE6E878012105
:1043A00008F03AF802F05AFA43E6E878012108F0FA
:1043B00033F802F075FB3CE6E878012108F02CF8B0
:1043C000B74829210170BD48067032E6E07901281E
:1043D00006D002280ED00A28D7D00B28D7D028E63E
:1043E000E878012108F018F8AD4839210170B44887
:1043F00086711EE6E878012108F00EF8A8483B21F6
:104400000170B048877114E6E07901280AD00228CB
:1044100025D0032828D004282BD00A28B2D00B2876
:1044200072D006E6E878012107F0F6FF9C482721C4
:104430000170A548A54906708A79BD3082714A7914
:104440004271CA78C2700A7902718A7882704A7899
:104450004270097801709C49E8786731FFE3E87899
:10446000012107F0D9FF0BE3E878012107F0D4FF21
:10447000F1E3E878012107F0CFFF02F0E7FAD8E591
:10448000E079012806D0022809D00A28C8D00B28D4
:10449000E5D0CEE5E878012107F0BEFFE5E2E87857
:1044A000012107F0B9FF02F0B3FBC2E5E079012872
:1044B00014D0022817D003281AD004281DD00528AC
:1044C00023D0062826D0072870D00A282DD00B2804
:1044D00085D1E878012107F09FFFF6E3E878012114
:1044E00007F09AFFF5E2E878012107F095FF29E34C
:1044F000E878012107F090FFC9E3E878012107F08F
:104500008BFF02F0AFFB94E5E6E2E878012107F0CB
:1045100083FFF8E3E878012107F07EFF02F0CCFB8F
:104520006B480772FDF766F983E5E878012107F02B
:1045300073FFE9E3E07901280AD002280DD00328AF
:10454000E8D00428CFD00A28A0D00B2891D070E55D
:10455000E878012107F060FF30E3E878012107F0F7
:104560005BFF57E35B48807A0D2888D00E2886D001
:10457000E878012107F050FFFFF766F902F0EEF846
:1045800057E50B2885D15348817A02298DD1052121
:1045900081725148467231E0E0790A28F1D1E1E7B1
:1045A0004E482EE0E07901F045FF42E5F3E3E07983
:1045B0000A2800D1AEE53CE5E0790A2800D1B0E553
:1045C00037E5E0790A2800D1B2E532E5E0790A283A
:1045D000FAD00B2897D10DF071FD2AE5807A0C28CE
:1045E00091D00D2800D009E623E50B298BD1817AE3
:1045F000022988D1042181723948C671FF20A07137
:1046000017E5807A0128CDD013E5244E707809286B
:104610008AD1E0790B280ED00A2885D1E8780121CB
:1046200007F0FAFE1520707003E5E1790A29DCD164
:10463000D4E71948E5E70A20F5E7E0790A2810D021
:104640000B2884D11A4E3078022899D1E87870214D
:1046500007F0E2FE082030708001708001F016F94A
:10466000CCE71348007805288AD0062800D066E6F3
:10467000DFE4104861E0104E30780C2895D1E079E5
:104680000B282FD00A2890D1E878012107F0C4FE2A
:104690000E203070CDE400007E14002015000020B4
:1046A000140000209A170020240000202C00002075
:1046B000E2160020FA160020200000203E00002014
:1046C0005E00002072000020B90000200C000020D5
:1046D000A41D0020EA130020DE130020F6130020A2
:1046E000041700200D20D4E7FC48017804290BD0E2
:1046F000052909D0022987D1E1790B290DD00A2992
:1047000092D102F0B1F994E4E079FF288CD001F065
:1047100053F80520C001F149E7E3042101700521A8
:10472000C9014180EE480C21467401748774E87811
:10473000EC4907F0F1FD61E7EB48007862E7EB4EEA
:104740003078182894D1E0790B2807D00A288FD127
:10475000E878012107F060FE20209AE7192098E709
:10476000E04E5B3E3078002816D0012827D0022882
:104770003BD003284BD0042877D0052876D00628D4
:1047800075D0072874D0082873D0092872D00A2859
:1047900071D00B2871D028E1E079092800D30DD120
:1047A000E878012107F038FECE48E279623081795D
:1047B00012010907090F89188171377015E1E07935
:1047C000092800D310D1E878012107F025FEC5495A
:1047D000E27962318879000900018018C0B28871DD
:1047E0000221317012F0A0FBFFE0E079022849D2EB
:1047F000E878012107F010FEBA48E2796230417989
:1048000012010907090F891841710320D8E0E079E6
:10481000092800D336D1E878012107F0FDFDB14920
:10482000E27962314879000900018018C0B248710C
:10483000122823D912F05EF80220C1E07FE24FE295
:104840001CE274E13CE1DCE1AFE1F5E3A1E368E304
:10485000D6E2F2E3F2E3F2E3B0E3F2E2F0E3C9E23C
:104860009AE210E125E3F6E0E0E00CE01EE040E033
:1048700051E06CE07DE092E0FEE3A3E004213170C2
:1048800012F06AF8B1E0E079042831D2E878012129
:1048900007F0C2FD9348E2796230C178120109073E
:1048A000090F8918C17005208AE0E6E3E07909283C
:1048B00000D31DD1E878012107F0AEFD894FE179E1
:1048C0006237F878000900014018C2B2FA707979AD
:1048D000B87912F059FCFF2805D000E068E311F028
:1048E000E1FF04206CE006203070F87811F09EFFA4
:1048F0007BE0E079032878D2E878012107F08CFD8D
:104900007848E2796230817812010907090F891825
:104910008170072054E0E079092800D365D1E87858
:10492000012107F079FD6F49E27962318878000949
:1049300000018018C0B28870232803D911F0C6FF87
:1049400006203DE00821317011F08EFF4DE0E07946
:1049500006284AD2E878012107F05EFD6148E27935
:104960006230417812010907090F89184170092046
:1049700026E0E079092800D337D1E878012107F053
:104980004BFD5849E27962314878000900018018EE
:10499000C0B248700A21317011F0C0FF25E0E07903
:1049A000062822D2E878012107F036FD4D488F22F3
:1049B000623001781140E2791201891801700B20F0
:1049C000307012E0E079092800D30ED1E878012197
:1049D00007F022FD4349E2796231087800090001BD
:1049E0008018C0B2087012F007FAE0790B2802D0E4
:1049F0000A2871D008E43B49E8782A3907F08CFC92
:104A000038483B49623082798A7142794A71C2786A
:104A1000CA7002790A7182788A7042784A70007886
:104A2000087012F045FB02F0B3F868E4314E3078BC
:104A30000128FAD1E0790A2807D00B28F5D1E878C7
:104A4000012107F0E9FC032023E6E878012107F0C3
:104A5000E3FC0A201DE6E0792749012808D0022856
:104A600008D00A280AD00B28DFD101F0AFFE46E4B7
:104A70000E7000E00F7011F0B5FD40E410F066F923
:104A800002F0B8F83BE4E07901280BD002280AD004
:104A900003280CD004280CD00A280CD00B2800D1F5
:104AA000FDE42CE40320E87011F098FE27E4EF7099
:104AB000FAE7EE70F8E7E878012107F0ADFCDDE7F2
:104AC000E07901281AD002281FD00A2826D00B2806
:104AD000ABD102F0E3F812E4AEE100009A17002037
:104AE0001021002014010020240000202C000020B0
:104AF0000C0000203E0000206C000020E87801211E
:104B000007F08AFCF948867005E0E878012107F093
:104B100083FCF648877011F027FE16E4E87801213F
:104B200007F07AFCF1490122891CF14830E1E07973
:104B300001280AD002280FD0032817D00A281DD038
:104B40000B28EAD102F0C6F820E4E878012107F04A
:104B500063FCE648C77006E0E878012107F05CFCDA
:104B6000E2480221C17011F0C3FD0FE4E878012191
:104B700007F052FCDD490320C870F4E7E878012112
:104B800007F04AFCD949DA480122C91C401CFDF74C
:104B900053FE05F03FFFFF2802D101F0C9FD01E0FF
:104BA00001F054FFFCF742FE05E4E079022808D04A
:104BB000082812D00A281BD00B28F5D102F098F84B
:104BC00003E4E878012107F027FCC84801780A29A6
:104BD00001D2491C0AE0C8B239E0E878012107F0A7
:104BE0001BFCC24801780229F5D9491E0170F2E781
:104BF000E878012107F010FCBD480122BB49801E66
:104C000039E0E079022808D0082815D00A2829D0F0
:104C10000B28D5D102F034F803E4E878012107F03D
:104C2000FBFBB2484178052901D2052102E0142995
:104C3000D1D2491C4170CEE7E878012107F0ECFBA6
:104C4000AA494878052807D9401EC0B2487011F01B
:104C500027FD14E403E029E14E70E878A54907F048
:104C60005BFB0CE4E878012107F0D6FB9F49A048E4
:104C70000122491C401EFDF7DFFD91E7E079022883
:104C800008D0082812D00A2820D00B28E1D101F042
:104C9000DBFF0AE4E878012107F0BEFB93490879BD
:104CA000172801D2801C0871C0B20AE0E8780121FF
:104CB00007F0B2FB8D480179032901D9891E0171E2
:104CC000C8B2400811F0C2FC1DE45FE1E8780121A0
:104CD00007F0A2FB854986480122091D801C57E088
:104CE000E079022811D008281BD00B2801D00A280F
:104CF000EAD1E878012107F08FFB7C497C4801224A
:104D0000491DC01C44E023E055E1E878012107F08B
:104D100083FB76484179082901D2491C4171C8B208
:104D20000AE0E878012107F077FB7049487901280B
:104D300001D9401E4871C0B211F0FEFC07E4E079D1
:104D4000012808D0022810D00A2818D00B28F5D145
:104D500001F06CFF14E4E878012107F05DFB634883
:104D600064498771E878891D79E7E878012107F0BF
:104D700053FB5E485F498671E8780C316FE7E8784D
:104D8000012107F049FB594959480122891D001D9D
:104D9000FDF752FD01E7D0E0E079022802D00828B3
:104DA0000FD01DE0E878012107F036FB5249087862
:104DB000022802D0012802D012E00F7010E00E701D
:104DC0000EE0E878012107F027FB4B480178002925
:104DD00002D0012902D003E0077001E00221017036
:104DE000E0790A2801D1FFF776F90B2801D1FFF706
:104DF000D5FA05E4414800780128FAD1E07910E2BB
:104E0000E079012826D0022808D003280DD00A28EE
:104E100012D00B2801D1FFF727FB05E4E878012128
:104E200007F0FAFA01F02EFE22E435480078552802
:104E3000FAD101F04BFC1BE4E878012107F0ECFA11
:104E4000F1E5E07901280AD002280FD00A2825D000
:104E50000B28E9D1E878012107F0DEFA1BE0E878B9
:104E6000012107F0D9FA2748067309E0E878012103
:104E700007F0D2FA05F036FEFF28224803D0077368
:104E800011F090FC06E406730FF060FF1949E87812
:104E90003C3907F041FA01F089FE34E4E878012159
:104EA00007F0BAFA11F058FB0FF050FF01F02AFC9E
:104EB00029E4E079144C154F012806D002280BD0C4
:104EC0000A2825D00B28A9D01DE4E878012107F095
:104ED000A3FAFF20607004E0E878012107F09CFA53
:104EE00066703E7011F09EFB0DE467E1A41D00208A
:104EF000E41F00002C0100204E000020B01800200C
:104F000074200020BE180020470000206E00002002
:104F1000E878012107F080FA0FF018FFFCF72EFD6A
:104F2000C4E7E079FA4C01280CD0022810D00328FD
:104F300016D00A281BD00B28AFD1E878012107F042
:104F40006BFA76E7E878012107F066FA667004E00C
:104F5000E878012107F060FA677011F01FFB49E55E
:104F6000E878012107F058FA02206070F5E7E87848
:104F7000012107F051FA0FF0E9FE2078012801D154
:104F800007F078FE05F046FDFF288FD101F0D0FB39
:104F900030E5E0790B2801D1FFF707FA0A28DED1C6
:104FA000E878012107F038FA05F034FDFF2802D037
:104FB00001F0FEFB1EE501F033FC1BE5D5488079CE
:104FC0000228CCD1E079022812D0102814D0082869
:104FD00022D0162824D00A2801D1FFF7D8F90B28AF
:104FE000BDD1E878012107F017FACB48077001E539
:104FF000E878012107F010FAC64841880029AED0B0
:10500000491E4180C548C64A4188914202D2491C86
:105010004180EFE44680EDE4E878012107F0FCF9F7
:10502000BC4A538810885B1C834298D2BB48418895
:10503000002906D0491E08E014E1E7E0D8E007E0C7
:1050400027E1017E002901D0B54941805380D1E498
:10505000B448807A002815D0012844D0022877D09F
:10506000B04F042894D1E07902286DD010286CD07C
:1050700008286BD0162801E0E8E0F0E067D00B28A4
:105080002ED1AAE7E079022804D008280DD00628FE
:1050900017D064E0E878012107F0BEF9A14A107842
:1050A000992887D2FBF741FA09E0E878012107F057
:1050B000B3F99C4A1078002899D0FBF72BFA1070AE
:1050C00098E4E878012107F0A7F99648877291E4FF
:1050D000E878012107F0A0F992490320887289E459
:1050E0000A28CED086E4E079022806D008280FD01E
:1050F000042819D006281ED031E0E878012107F0F5
:105100008BF9884A5078122885D2FBF70EFA09E00D
:10511000E878012107F080F9824A5078012896D971
:10512000FBF7F8F9507065E4E878012107F074F9AD
:105130007C4886725EE4E878012107F06DF97948D1
:105140000221817256E403E029E02CE03AE03DE0E0
:10515000E079022806D0082815D00428B1D00B2801
:10516000BED1B5E7E878012107F056F96D4C6178BA
:105170002078FBF7E5F90146A0788142A0D9FBF73A
:10518000D4F9A07036E4E878012107F045F9654AC2
:105190009078012894D9FBF7BDF990702AE4E8785B
:1051A000012107F039F9F888002889D0401E5B49B1
:1051B000F88048885A4A904202D2401C488019E43C
:1051C0004E8017E4E878012107F026F9F988B888BD
:1051D000491C814286D251484288002A01D0521E81
:1051E00003E0027E002A01D04D4A4280F9801CE48F
:1051F0004D4EB0790228FAD1E0790B28B0D1E87889
:10520000012107F009F90320B0710EE4474AE07963
:105210001178082908D0FF28E9D00A29E7D1F02120
:10522000518000F0C9FA22E40A28FCD24049102338
:105230004F740B748F7408700120FF230B54401CB3
:105240000C7CC0B28442F9D8092038E7E0790A28FA
:10525000E9D1E878012107F0DFF8FCF7B5FA01F0B1
:10526000D1FA04E4887E0328DDD1E0790A2808D049
:105270000E28D8D12F48807AFF28D4D107F03CF8E7
:105280000FE4E878012107F0C7F800990620887636
:1052900007E4294E307801280BD00A28F0D1E079B4
:1052A0000B28EDD1E878012107F0B6F80B20FFF7C5
:1052B000F0F9E079002823D001283FD0022844D01B
:1052C000032849D004284ED0052853D0062858D0AA
:1052D00007285DD0082862D0092867D00A286CD03A
:1052E0000B2873D01B2878D00E28C9D1E87801216B
:1052F00007F092F8FF20B073E07908F0A3FB0CE40C
:10530000E878012107F088F8FF207070F4E70000CA
:10531000D02200205E00002066000020CC19002072
:105320007F020000F61B002072000020A61700205C
:10533000102100204C190020CE180020E87801210F
:1053400007F06AF8FF20B070D6E7E878012107F08F
:1053500063F8FF20F070CFE7E878012107F05CF8F0
:10536000FF203071C8E7E878012107F055F8FF20E9
:105370007071C1E7E878012107F04EF8FF20B071A5
:10538000BAE7E878012107F047F8FF20F071B3E7AA
:10539000E878012107F040F8FF203072ACE7E878A8
:1053A000012107F039F8FF207072A5E7E8780121A4
:1053B00007F032F8FF20B0729EE7E878012107F08D
:1053C0002BF8FF20F07297E700E006E0E878012173
:1053D00007F022F8FF2030738EE7E878012107F00C
:1053E0001BF8FF20707387E702780B789A422DD163
:1053F00042784B789A4229D182788B789A4225D18B
:10540000C278CB789A4221D102790B799A421DD188
:1054100042794B799A4219D182798B799A4215D186
:10542000C279CB799A4211D1027A0B7A9A420DD184
:10543000427A4B7A9A4209D1827A8B7A9A4205D182
:10544000C07AC97A884201D1FF2070470020704796
:10545000F8B501210223032205270025564C002818
:105460001AD00C2845D00D2849D002284ED0032848
:1054700052D0042856D0052858D006287AD00728BC
:105480007ED0082873D0092872D00A2871D00B2842
:105490006AD1E373257437E0484E7079012817D03C
:1054A00033469E7903281ED01B7A0C2815D0434F13
:1054B00002281BD0042812D0052814D0062812D0A8
:1054C000072813D008284FD10420E073257402E088
:1054D000E373F07905E065742BE0E77307E0E273AE
:1054E000787A2074F7E7E5732674F4E7E1732374A0
:1054F000F1E73348E273807820740C2004E03148EF
:10550000E273807820740D20607412E02E48E573F9
:105510008078207463740CE02C48E57380782074E4
:10552000627406E0E57325740420EDE7E5732574E5
:1055300067742748A574817961724179A172C17835
:10554000E17281782173417861730078A0735520EE
:10555000A071AA20E071208805F04AFE20881D492C
:10556000884223D2401C2080F8BD03E008E00DE013
:1055700010E015E01848E173007920740620C3E7B5
:105580001648E173007920740720BDE7E1732574A4
:105590000820B9E71248E373007920740920B3E7C3
:1055A0001048E373007A20740A20ADE7207A401C8B
:1055B00020722580D8E70000CC190020BE180020FA
:1055C000EA130020F6130020721400207E1400203D
:1055D0000C0000207F0200009A1700202400002009
:1055E000E2160020FA160020FFB52A4C81B020797F
:1055F0000E46002808D001280DD1A078E178884215
:1056000009D8208800251DE0012020712380E27048
:10561000002B02D0A27005B0F0BD0020A070FAE708
:105620000A21FAF763FD0090781BC0008019083842
:10563000C0B20A46014600230198FCF7F5FC6D1C38
:105640000098EDB2A778AF42EAD8FDB209E0E800D1
:105650008019C1B20023F7220198FCF711FD6D1CDF
:10566000EDB2E078401CA842F1D80A489838407959
:105670000128A07808D0C00080190023C1B2F82208
:105680000198FCF7FDFCC6E7C00080190023C1B2F9
:10569000F722F5E75001002070B5254C0026207850
:1056A000244D00280FD001280CD1FBF70DF82878E5
:1056B00002280CD0032805D16879411C69710328A0
:1056C0001DD22E7070BD2E706E71012015E06878AD
:1056D0002071A8786071E878A071FAF7E3FFE071B3
:1056E000FBF782F86072FBF78FF82072FBF758F82F
:1056F000A070FBF767F8E0700220207070BD07F023
:10570000E9FB68782071A8786071E878A071FAF7F1
:10571000C9FFE071FBF768F86072FBF775F820725B
:10572000FBF73EF8A070FBF74DF8E0700320E4E7CC
:10573000A51800207E18002010B5FBF7E3F81648E6
:1057400000244471012101718471144814490471C9
:10575000082008701349FF20C87005F0A7FC07F067
:105760000DFC07F033FB07F079FB07F043FB07F074
:10577000C1FA0D4804210470447084700B48047011
:105780000B48447004700B48017044708470C470FE
:1057900000BF00BF10BD0000B80000201A000020AC
:1057A000EC1600202F000020BE1800205D00002015
:1057B000820000208800002070B51F491F4A097828
:1057C0001F4CD278092811D310D003250A281DD0E8
:1057D0000B280AD13C2903D00121104606F01CFEFB
:1057E000607C002825D00220A07470BD3C2903D025
:1057F0000121104606F010FE607C217C8842F4D224
:105800001049C9792154607C401C10E03C2903D028
:105810000121104606F000FE607C002809D000201F
:10582000FF212154401CC0B21028FAD3002060741C
:1058300070BDA57470BD000014000020420000205F
:1058400010210020B8000020F8B50F4D0646687CF6
:10585000102818D83046FBF763F8701CC0B2FBF76D
:105860005FF8002440270BE08000E100381A081898
:10587000C1B20023F3223046FCF702FC641CE4B200
:10588000687CA042F0D8F8BD1021002006480178BD
:105890000648002905D0312903D00F21C901018014
:1058A00070470521C901FAE71400002036000020E6
:1058B000FFB581B00F4600BF00BF214C0198217891
:1058C00081420AD16078B84207D1A1780398814219
:1058D00003D1E1780498814230D01A4D287B00280A
:1058E0000CD100260A2004F009FDFDF779FA287B87
:1058F000012803D0761CF6B2192EF3D300202873AA
:1059000010488021203841853946049B039A01982C
:10591000FDF76EFB00260A2004F0F0FCFDF760FAAC
:10592000287B012803D0761CF6B2192EF3D30198F8
:10593000207067700398A0700498E07005B0F0BD07
:105940008800002062140020F8B544480025C17882
:10595000491CCAB20121C2703F2A03D902794A40C8
:105960000271C570C278D20602D142794A404271B2
:105970003B4E307B002801D0401E3073707B2028C6
:1059800001D2401C70733749488D002801D0401E59
:10599000488535498878002801D0401E8870334CEE
:1059A0002078FF2853D1324908783C284FD030283E
:1059B0004DD02C284BD0292849D02E484078FF289C
:1059C00045D125706570002710212B4802F006F89C
:1059D000002802D16078401C6070012004F08EFC29
:1059E0007F1CFFB2322FEFD360782D282FD92348A8
:1059F0000078032801D008F0C1F81D4F387814282A
:105A000002D0412803D004E0FBF7DEFE01E0FBF703
:105A1000D5FE1B481C49057045708570C5703C203B
:105A200038701848608008200870184900220D71ED
:105A3000307006211046FBF7A9FE0022FF23114615
:105A40000420FFF735FF08F075F808F063F8FEF75B
:105A5000FDF900F0CFFA11F085FAF8BDB80000208A
:105A6000EC16002074200020F21B00206E000020A5
:105A70001400002047000020000400506A000020AD
:105A8000BE180020F22B0000A61700201A000020EC
:105A9000F8B5F8483226C07CF74F0024F74D0228AD
:105AA00008D0012806D003280DD005280BD00428E3
:105AB00009D013E0F24809214171FDF711F82E7069
:105AC0000620387006E0EE480A214171FDF708F81B
:105AD0002E703C700520EA4940024881E54820309C
